{
	"_format": "hh-sol-artifact-1",
	"contractName": "BuyMeACoffee",
	"sourceName": "contracts/BuyMeACoffee.sol",
	"abi": [
		{
			"inputs": [],
			"stateMutability": "nonpayable",
			"type": "constructor"
		},
		{
			"anonymous": false,
			"inputs": [
				{
					"indexed": true,
					"internalType": "address",
					"name": "from",
					"type": "address"
				},
				{
					"indexed": false,
					"internalType": "uint256",
					"name": "timestamp",
					"type": "uint256"
				},
				{
					"indexed": false,
					"internalType": "string",
					"name": "name",
					"type": "string"
				},
				{
					"indexed": false,
					"internalType": "string",
					"name": "message",
					"type": "string"
				}
			],
			"name": "NewMemo",
			"type": "event"
		},
		{
			"inputs": [
				{
					"internalType": "string",
					"name": "_name",
					"type": "string"
				},
				{
					"internalType": "string",
					"name": "_message",
					"type": "string"
				}
			],
			"name": "buyACoffee",
			"outputs": [],
			"stateMutability": "payable",
			"type": "function"
		},
		{
			"inputs": [],
			"name": "getMemos",
			"outputs": [
				{
					"components": [
						{
							"internalType": "address",
							"name": "from",
							"type": "address"
						},
						{
							"internalType": "uint256",
							"name": "timestamp",
							"type": "uint256"
						},
						{
							"internalType": "string",
							"name": "name",
							"type": "string"
						},
						{
							"internalType": "string",
							"name": "message",
							"type": "string"
						}
					],
					"internalType": "struct BuyMeACoffee.Memo[]",
					"name": "",
					"type": "tuple[]"
				}
			],
			"stateMutability": "view",
			"type": "function"
		},
		{
			"inputs": [],
			"name": "withdrawTips",
			"outputs": [],
			"stateMutability": "nonpayable",
			"type": "function"
		}
	],
	"bytecode": "0x608060405234801561001057600080fd5b5033600160006101000a81548173ffffffffffffffffffffffffffffffffffffffff021916908373ffffffffffffffffffffffffffffffffffffffff160217905550610c9a806100616000396000f3fe6080604052600436106100345760003560e01c80633aaa74b214610039578063865c517214610050578063e810d34e1461007b575b600080fd5b34801561004557600080fd5b5061004e610097565b005b34801561005c57600080fd5b506100656100f9565b6040516100729190610673565b60405180910390f35b610095600480360381019061009091906107de565b6102dc565b005b600160009054906101000a900473ffffffffffffffffffffffffffffffffffffffff1673ffffffffffffffffffffffffffffffffffffffff166108fc479081150290604051600060405180830381858888f193505050506100f757600080fd5b565b60606000805480602002602001604051908101604052809291908181526020016000905b828210156102d357838290600052602060002090600402016040518060800160405290816000820160009054906101000a900473ffffffffffffffffffffffffffffffffffffffff1673ffffffffffffffffffffffffffffffffffffffff1673ffffffffffffffffffffffffffffffffffffffff168152602001600182015481526020016002820180546101b090610885565b80601f01602080910402602001604051908101604052809291908181526020018280546101dc90610885565b80156102295780601f106101fe57610100808354040283529160200191610229565b820191906000526020600020905b81548152906001019060200180831161020c57829003601f168201915b5050505050815260200160038201805461024290610885565b80601f016020809104026020016040519081016040528092919081815260200182805461026e90610885565b80156102bb5780601f10610290576101008083540402835291602001916102bb565b820191906000526020600020905b81548152906001019060200180831161029e57829003601f168201915b5050505050815250508152602001906001019061011d565b50505050905090565b662386f26fc10000341015610326576040517f08c379a000000000000000000000000000000000000000000000000000000000815260040161031d90610939565b60405180910390fd5b600060405180608001604052803373ffffffffffffffffffffffffffffffffffffffff16815260200142815260200184815260200183815250908060018154018082558091505060019003906000526020600020906004020160009091909190915060008201518160000160006101000a81548173ffffffffffffffffffffffffffffffffffffffff021916908373ffffffffffffffffffffffffffffffffffffffff1602179055506020820151816001015560408201518160020190816103ee9190610b05565b5060608201518160030190816104049190610b05565b5050503373ffffffffffffffffffffffffffffffffffffffff167fc56140e05f516509ae28110e0f72e17558a7561630dad2647c3ae87d986e365c42848460405161045193929190610c1f565b60405180910390a25050565b600081519050919050565b600082825260208201905092915050565b6000819050602082019050919050565b600073ffffffffffffffffffffffffffffffffffffffff82169050919050565b60006104b482610489565b9050919050565b6104c4816104a9565b82525050565b6000819050919050565b6104dd816104ca565b82525050565b600081519050919050565b600082825260208201905092915050565b60005b8381101561051d578082015181840152602081019050610502565b60008484015250505050565b6000601f19601f8301169050919050565b6000610545826104e3565b61054f81856104ee565b935061055f8185602086016104ff565b61056881610529565b840191505092915050565b600060808301600083015161058b60008601826104bb565b50602083015161059e60208601826104d4565b50604083015184820360408601526105b6828261053a565b915050606083015184820360608601526105d0828261053a565b9150508091505092915050565b60006105e98383610573565b905092915050565b6000602082019050919050565b60006106098261045d565b6106138185610468565b93508360208202850161062585610479565b8060005b85811015610661578484038952815161064285826105dd565b945061064d836105f1565b925060208a01995050600181019050610629565b50829750879550505050505092915050565b6000602082019050818103600083015261068d81846105fe565b905092915050565b6000604051905090565b600080fd5b600080fd5b600080fd5b600080fd5b7f4e487b7100000000000000000000000000000000000000000000000000000000600052604160045260246000fd5b6106eb82610529565b810181811067ffffffffffffffff8211171561070a576107096106b3565b5b80604052505050565b600061071d610695565b905061072982826106e2565b919050565b600067ffffffffffffffff821115610749576107486106b3565b5b61075282610529565b9050602081019050919050565b82818337600083830152505050565b600061078161077c8461072e565b610713565b90508281526020810184848401111561079d5761079c6106ae565b5b6107a884828561075f565b509392505050565b600082601f8301126107c5576107c46106a9565b5b81356107d584826020860161076e565b91505092915050565b600080604083850312156107f5576107f461069f565b5b600083013567ffffffffffffffff811115610813576108126106a4565b5b61081f858286016107b0565b925050602083013567ffffffffffffffff8111156108405761083f6106a4565b5b61084c858286016107b0565b9150509250929050565b7f4e487b7100000000000000000000000000000000000000000000000000000000600052602260045260246000fd5b6000600282049050600182168061089d57607f821691505b6020821081036108b0576108af610856565b5b50919050565b600082825260208201905092915050565b7f596f75206e65656420746f20706179206174206c6561737420302e303120455460008201527f4800000000000000000000000000000000000000000000000000000000000000602082015250565b60006109236021836108b6565b915061092e826108c7565b604082019050919050565b6000602082019050818103600083015261095281610916565b9050919050565b60008190508160005260206000209050919050565b60006020601f8301049050919050565b600082821b905092915050565b6000600883026109bb7fffffffffffffffffffffffffffffffffffffffffffffffffffffffffffffffff8261097e565b6109c5868361097e565b95508019841693508086168417925050509392505050565b6000819050919050565b6000610a026109fd6109f8846104ca565b6109dd565b6104ca565b9050919050565b6000819050919050565b610a1c836109e7565b610a30610a2882610a09565b84845461098b565b825550505050565b600090565b610a45610a38565b610a50818484610a13565b505050565b5b81811015610a7457610a69600082610a3d565b600181019050610a56565b5050565b601f821115610ab957610a8a81610959565b610a938461096e565b81016020851015610aa2578190505b610ab6610aae8561096e565b830182610a55565b50505b505050565b600082821c905092915050565b6000610adc60001984600802610abe565b1980831691505092915050565b6000610af58383610acb565b9150826002028217905092915050565b610b0e826104e3565b67ffffffffffffffff811115610b2757610b266106b3565b5b610b318254610885565b610b3c828285610a78565b600060209050601f831160018114610b6f5760008415610b5d578287015190505b610b678582610ae9565b865550610bcf565b601f198416610b7d86610959565b60005b82811015610ba557848901518255600182019150602085019450602081019050610b80565b86831015610bc25784890151610bbe601f891682610acb565b8355505b6001600288020188555050505b505050505050565b610be0816104ca565b82525050565b6000610bf1826104e3565b610bfb81856108b6565b9350610c0b8185602086016104ff565b610c1481610529565b840191505092915050565b6000606082019050610c346000830186610bd7565b8181036020830152610c468185610be6565b90508181036040830152610c5a8184610be6565b905094935050505056fea26469706673582212208e8c8e82ed95c775aa98a20dbe1c7fdce45078e0c76712f7b97fb68f3a27c34b64736f6c63430008120033",
	"linkReferences": {},
	"deployedLinkReferences": {}
}